:020000040000fa
:080000000002040000000000f2
:020000040000fa
:100008009a0200009a0200009a0200009a02000078
:100018009a0200009a0200009a0200009a02000068
:100028009a0200009a0200009a02000012140000ce
:100038009a0200009a0200009a0200009a02000048
:100048009a0200009a0200009a0200009a02000038
:100058009a0200009a0200009a0200009a02000028
:100068009a0200000a1400009a0200009a02000096
:100078009a0200009a0200009a0200009a02000008
:100088009a0200009a0200009a0200009a020000f8
:100098009a0200009a0200009a0200009a020000e8
:1000a8009a0200009a0200009a0200009a020000d8
:1000b8009a0200009a0200009a0200009a020000c8
:1000c8009a0200009a0200009a0200009a020000b8
:1000d8009a0200009a0200009a0200009a020000a8
:1000e8009a0200009a0200009a0200009a02000098
:1000f8009a0200009a0200009a0200009a02000088
:100108009a0200009a0200009a0200009a02000077
:100118009a0200009a0200009a0200009a02000067
:100128009a0200009a0200009a0200009a02000057
:100138009a0200009a0200009a0200009a02000047
:100148009a0200009a0200009a0200009a02000037
:100158009a0200009a0200009a0200009a02000027
:100168009a0200009a0200009a0200009a02000017
:100178009a0200009a0200009a0200009a02000007
:100188009a0200009a0200009a0200009a020000f7
:100198009a0200009a0200009a0200009a020000e7
:1001a8009a0200009a0200009a0200009a020000d7
:1001b8009a0200009a0200009a0200009a020000c7
:1001c8009a0200009a0200009a0200009a020000b7
:1001d8009a0200009a0200009a0200009a020000a7
:1001e8009a0200009a0200009a0200009a02000097
:0801f8009a0200009a020000c7
:020000040000fa
:100208009a0200009a0200009a0200009a02000076
:100218009a0200009a0200009a0200009a02000066
:100228009a0200009a0200009a02000012140000cc
:100238009a0200009a0200009a0200009a02000046
:100248009a0200009a0200009a0200009a02000036
:100258009a0200009a0200009a0200009a02000026
:100268009a0200000a1400009a0200009a02000094
:100278009a0200009a0200009a0200009a02000006
:100288009a0200009a0200009a0200009a020000f6
:100298009a0200009a0200009a0200009a020000e6
:1002a8009a0200009a0200009a0200009a020000d6
:1002b8009a0200009a0200009a0200009a020000c6
:1002c8009a0200009a0200009a0200009a020000b6
:1002d8009a0200009a0200009a0200009a020000a6
:1002e8009a0200009a0200009a0200009a02000096
:1002f8009a0200009a0200009a0200009a02000086
:100308009a0200009a0200009a0200009a02000075
:100318009a0200009a0200009a0200009a02000065
:100328009a0200009a0200009a0200009a02000055
:100338009a0200009a0200009a0200009a02000045
:100348009a0200009a0200009a0200009a02000035
:100358009a0200009a0200009a0200009a02000025
:100368009a0200009a0200009a0200009a02000015
:100378009a0200009a0200009a0200009a02000005
:100388009a0200009a0200009a0200009a020000f5
:100398009a0200009a0200009a0200009a020000e5
:1003a8009a0200009a0200009a0200009a020000d5
:1003b8009a0200009a0200009a0200009a020000c5
:1003c8009a0200009a0200009a0200009a020000b5
:1003d8009a0200009a0200009a0200009a020000a5
:1003e8009a0200009a0200009a0200009a02000095
:0803f8009a0200009a020000c5
:020000040000fa
:100400004f8d20000eff20000e018800000000002c
:10041000000020000000e000020032000001200087
:10042000200288000c000700204521000100200068
:1004300011000700000020000000e0000200320070
:10044000000002000000000086130200000000000f
:100450000040da000000fe004440a9000000200037
:100460000000e0000300320000002000a00188002e
:100470004440a80000000600910188008000780038
:100480000000eb0015003700e280400032a0b4000d
:100490009101ba00e280400032a0b4009102ba009b
:1004a000e280400032a0b4000002eb00472bde00e7
:1004b000f507b200602ce10004003a000059eb009f
:1004c0008301e900fdff3e00040037006128e100e0
:1004d000010032000082eb00040007001101ba00a5
:1004e0000200e000e8ff3a00000006003159ba00bf
:1004f0008301e9000c0032002159ba008301e900b0
:10050000080032000400e00003003a00e2804000ee
:1005100032a0b400f5ff370011d9ba008301e90019
:10052000faff3a008100e800e180400032a0b40008
:10053000000006000040da000000fe000000fa00a3
:1005400007e2a9009600a9009620a9008600a9004c
:100550008620a9000080fa00000006000200fa00d0
:10056000000f78008600a9008620a9001e027800ee
:10057000044278006742620067426200674262009c
:100580000482fb00670262006605800085ff2f0081
:1005900085026300050272006405880004072000dc
:1005a0001e0262004422de000442780067426200bc
:1005b0000482fb00670262004422dd0066058000c1
:1005c000f5f82f00850263000502720064058800bb
:1005d0009e027800688262004322de0004427800b6
:1005e000614262000482fb0061026200b604800086
:1005f000e5ff2f008502630005027200b404880045
:10060000040820001e0262004722de000442780037
:10061000614262000482fb00610262000402420047
:10062000b6048000d5ff2f0085026300050272002a
:10063000b40488000080fa00000006000000fa0000
:10064000000000003410800061026200e00f5200e0
:10065000fcff3a003410800062026200e00f52009a
:10066000f8ff3a003410800064026200e00f52008c
:10067000f4ff3a003410800068026200e00f52007c
:10068000f0ff3a003410800070026200e00f520068
:10069000ecff3a0045108000040024000482620050
:1006a000e00f5200e7ff3a000080fa000000060069
:1006b0000800fa00100798002107980032079800f8
:1006c0000002eb00040f7800270037000662a80044
:1006d000080037009e0278003e029000848f52008e
:1006e000020031001e0fe800020037001e029000d9
:1006f000210037004d00070000427800e04f520013
:10070000f4ff32000002eb00040f780004108000b8
:10071000844278002e029000054a78002e02900054
:100720000402e800240798001e0290000402e90079
:10073000140798001e029000e00f520003003a00d8
:1007400006a2a8000682a8000300370006a2a9009e
:100750000682a800000000003410800070026200d1
:10076000e00f5200fcff3a001e029000e00f520022
:10077000d6ff3a000002eb00040078000080fa0087
:10078000000006000200fa00004f78009e42780048
:100790000582fb001410880045108000040820002a
:1007a00004826200e00f52000200320000c2eb003f
:1007b000010037000042eb00044078000080fa009e
:1007c000000006000000fa0006a2a8000682a800a9
:1007d0000080fa00000006000400fa00000f780014
:1007e000110798001e029000241088001e02780055
:1007f000341088000080fa00000006000000fa00b3
:100800000622a8000080fa00000006000000fa009e
:100810000602a8000080fa00000006000000fa00ae
:100820000642a8000080fa00000006000000fa005e
:10083000441080000402d10061426200044078004c
:100840000080fa000000060003f0a200889fbe00ae
:100850008a9fbe008c1f78004f01070056013300ad
:100860006450e1004f0032006420e1005200320089
:1008700003826c0007003b000905d0000306d0008e
:10088000820f54000c065d000200390002003200a5
:1008900089017800030678008582550004003d0038
:1008a0000003fd008103fd008502ea008b85420004
:1008b000840f720002003b0060001000e08018000e
:1008c0006011b8000005eb007a28e1000a00390049
:1008d00006007800c75ddd00f707b200878075006d
:1008e0002d003700828171000a01780061056000e7
:1008f0008180d1000080d3008502e900f9ff3b0030
:10090000060440008784480002003b006004140095
:10091000e0841c000988a300070032008a8171006e
:1009200082817100610164008904d1000884d300d0
:100930008b05e800170037000978a30013003a0080
:100940000b00e000130034008b05e90008044400ac
:1009500089844c000a4474000978a3000d003a0011
:100960000b00e000070034008b05e9000804440098
:1009700089844c0001003a000b0020000978a30094
:10098000f7ff32000001eb000200370082817100a6
:100990000a017800c50007000cf0a70001f0a000d4
:1009a0000e0137006420e10002003a00838f6c00e2
:1009b0000e0133000801be000200be00070137002f
:1009c000889fbe008a9fbe008c9fbe000004be00b0
:1009d000dc0007000800be00890678006420e10002
:1009e00008003900040032000160a000120220005b
:1009f000924688005300370091fc2300b0fd200090
:100a00004e0037000006eb0009f0a10003f82300b8
:100a1000020020000800be009f000700060034000e
:100a200001f82300000020000801be004900070073
:100a30000004be002c0020000800be0093e8230044
:100a4000320a230094000700120034000801be009f
:100a5000d1fd2300703d2b007cff07000005be0088
:100a6000b3f32300f27a26000800be00e20007007c
:100a700003f823000200200073ff07000801be00f6
:100a800072ff07000a01be00320007000004be002a
:100a90000c06e8000800be0001f0a10002002000e2
:100aa000039823007c0007000800be0016003500f4
:100ab0000801be00d00007000005be0032cd2c00aa
:100ac00043fb230061ff0700809fbe0012692800de
:100ad00003d52b000a00be00c7000700620f2100eb
:100ae00013ef2b0059ff07000a01be00c2000700e8
:100af0004f01be00170007000801be00be0007003e
:100b00000801be0051ff07000c00e0000b0032009e
:100b10000c10a70001f0a200b2fd200093fc2300fe
:100b20006260e1000400320022a9200063f023008b
:100b30000c10a70063f8230044ff07000df0a70086
:100b400001f0a2004f06be004f05be004f04be00dc
:100b500000000600889fbe008a9fbe008c1f7800a0
:100b60008d0007009400330003866c006450e100a0
:100b70002e0032006420e100330032006150e100b9
:100b80002f0032006120e1003100320085855500e0
:100b9000eb07b00009002000080420000500370022
:100ba0000804440089844c000a0031000603430015
:100bb00087834b000001530081815b00f8ff330005
:100bc0000203be000800a0000804440089844c0011
:100bd000f6ff3900c639dd008301730001003200e1
:100be000130020008904d1000884d3000998a300d1
:100bf000050032000800a7000300a0008904d1000e
:100c00000884d3008b05e8008904d1000884d30050
:100c10000001eb000281d2002400070001f0a100d6
:100c20000cf0a70001f0a0006c0037006420e10088
:100c30006e0032000801be000200be00f7ff370060
:100c40006120e100690032006000b800f3ff370066
:100c50000000200001f82700f0ff3700839f6800a4
:100c60000100e00002003d0060001000e08018007c
:100c70000300e00002003d0060011100e081190066
:100c8000c60007004f00e00002003b0060001000bb
:100c9000e08018000000060014002000cf0037009c
:100ca0004f89de0082017800e700370081002000d4
:100cb000618055000b003d000b00200061fe2f00fd
:100cc0000100e1001d0034008281710061016400b7
:100cd0008904d1000884d3000000e800faff3a003c
:100ce00071002000610064000300700002006000d9
:100cf0000900320061044400e0844c000988a5002a
:100d0000050032008b05e8006808e10002003a00a7
:100d10008904d1000884d300f20f20000258e100ba
:100d200005003d00c75ddd00f907b2008980750050
:100d300008007800000006000bf827008b00780000
:100d400000000500c70ade00f107b200f50fb2008f
:100d500008003200e1cf4200020032000170a00022
:100d600024000500810f7000010032000408050016
:100d700044000500810f700002003a0014000500d5
:100d80008502e9000000400081c04800fcff3b00f4
:100d90000170a000240005000004be00e9ff070068
:100da0000003be000405be000200be00e5ff070010
:100db000844f7500000006000200be006450e10090
:100dc000050036006420e100020036000968a30037
:100dd00001003a000800be000160a0004f06780044
:100de0004f05be004f04be0000000600f0ff2f00bc
:100df000f1ff2700f9ff3700889fbe008a9fbe00e1
:100e00008c1f7800e4ff0700ebff330003866c00c3
:100e10006450e100240032006420e1002700320029
:100e20006150e100220032006120e1002100320027
:100e30008b854200eb07b1000134b800003ab800de
:100e40000804420089844a00013ab8000030b80022
:100e50008880400009014a0004003300000040007f
:100e600081804800020149008b05e900c909dd00c5
:100e7000830170000100320013002000c814de005e
:100e80004814dd004709de001200b200c808de0089
:100e90000884700085ff070001f0a1000cf0a70096
:100ea00001f0a000cdff37006120e100cfff32004c
:100eb0000801be000200be00f7ff37006150e100ec
:100ec000fcff3a00c9ff3700889fbe008a9fbe0022
:100ed0008c1f78000004be009aff07000478a3006e
:100ee00026003a006120e1002500320009f8a30045
:100ef00025003a006420e10021003200f507b1002e
:100f00000508a30002003200000040008180480074
:100f10006044b800031020000200200000004000e0
:100f2000818048000805440089854c000a0541007d
:100f30008b8549000a0550008b855800030033005b
:100f40000a00be0002047400838474008301d1008f
:100f50000281d300830f7100f0ff3a008904d100b1
:100f60000884d3006001490082017800c1adde0031
:100f7000fb07b0004dff070098ff37000960a00095
:100f80000800be0095ff370012022000924688003c
:100f9000f0ff2f00f1ff270090ff37006022b8001c
:100fa000060220000000d0008180d2000482d2001e
:100fb0008582d2000000a0000202520083825a0003
:100fc000030031000202420083824a000000a100b7
:100fd0000603e900f3ff3a0000000600889fbe0008
:100fe0008a9fbe00841f78006bff07004f007800c7
:100ff00011003300f0ff2f00838f6c0006003b00d0
:10100000040565000a00a7000800370009f0a600e3
:101010001000200008003700820f5400838f5c000e
:10102000030039001000200001003e0000002000f5
:1010300009f0a7000000ea004f05be004f04be0003
:101040000000e00000000600881f7800030478001c
:101050000300e00007003d0060001000e080180081
:1010600060011900e081190002003b0001f02d0031
:10107000030037000400070008f0a70001f0a000fb
:101080004f04780000000600889fbe008a9fbe00c3
:101090000082700004027100048271002600320098
:1010a0000004be000200be006011b8006b09200001
:1010b000950220000182cf000a0039000541b100ed
:1010c0000082cf00070039000541b1000982cf003e
:1010d000040039000541b1000882cf000100390049
:1010e0000541b10005425200120032000a003b00e7
:1010f00082817100610164008100d1000080d30011
:101100008984d3000884d3008b05e8000442e800fa
:10111000f7ff3a00070037000804440089844c00b8
:1011200000004800818048008b05e9000442e90086
:10113000f9ff3a00ddfe07004f05be004f04be0078
:0411400000000600a5
:020000040000fa
:101144000200fa0013c0b3000e01780051c7b300c7
:1011540000cdb300c50407009e42780084c6b300e6
:1011640084cf5200c2003a0012c0b30091c1b30050
:1011740000cdb3006e04070013c0b3000e01780065
:1011840091c1b30000cdb300b804070032c0b3006e
:10119400a1c1b30000cdb3006504070013c0b300c0
:1011a4000e017800a1c1b30000cdb300af04070065
:1011b40082c1b300b1c1b30000cdb3005c04070029
:1011c40013c0b3000e017800b1c1b30000cdb30069
:1011d400a604070082c1b300c1c1b30000cdb300af
:1011e4005304070013c0b3000e017800c1c1b3005b
:1011f40000cdb3009d0407000041eb00d1c1b30052
:1012040000cdb3004a0407000041eb00e1c1b30084
:1012140000cdb300460407000041eb00f1c1b30068
:1012240000cdb300420407000041eb0001c2b3004b
:1012340000cdb3003e0407000041eb0011c2b3002f
:1012440000cdb3003a0407000041eb0021c2b30013
:1012540000cdb300360407000041eb0031c2b300f7
:1012640000cdb300320407000041eb0041c2b300db
:1012740000cdb3002e0407000041eb0051c2b300bf
:1012840000cdb3002a0407000041eb0061c2b300a3
:1012940000cdb300260407000041eb0071c2b30087
:1012a40000cdb300220407000041eb0081c2b3006b
:1012b40000cdb3001e0407000041eb0091c2b3004f
:1012c40000cdb3001a0407000041eb00a1c2b30033
:1012d40000cdb300160407000041eb00b1c2b30017
:1012e40000cdb300120407000041eb00c1c2b300fb
:1012f40000cdb3000e0407000041eb00d1c2b300df
:1013040000cdb3000a0407000041eb00e1c2b300c2
:1013140000cdb300060407000041eb00f1c2b300a6
:1013240000cdb300020407000041eb0001c3b30089
:1013340000cdb300fe0307000041eb0011c3b3006e
:1013440000cdb300fa0307000041eb0021c3b30052
:1013540000cdb300f60307000041eb0031c3b30036
:1013640000cdb300f20307000041eb0041c3b3001a
:1013740000cdb300ee0307000041eb0051c3b300fe
:1013840000cdb300ea0307000041eb0071c3b300d2
:1013940000cdb300e60307000041eb0081c3b300b6
:1013a40000cdb300e20307000041eb0031c6b300f7
:1013b40000cdb300de0307000041eb0041c6b300db
:1013c40000cdb300da0307000041eb0051c6b300bf
:1013d40000cdb300d60307000041eb0061c6b300a3
:1013e40000cdb300d20307000041eb0071c6b30087
:1013f40000cdb300ce0307000041eb0081c6b3006b
:1014040000cdb300ca0307000041eb0091c6b3004e
:1014140000cdb300c60307000041eb00a1c6b30032
:1014240000cdb300c203070022c0b300b1c6b300ad
:1014340000cdb300be03070013c0b3000e01780053
:10144400b1c6b30000cdb300080407000041eb00af
:10145400c1c6b30000cdb300b50307000041eb00e3
:1014640041c7b30000cdb300b10307000200370049
:101474000042eb00044f78001e42780004407800dc
:101484000080fa00000006000200fa000042eb00af
:10149400044f780013c0b3000e01780051c7b300a5
:1014a40000cdb300f10307009e42780084c6b30068
:1014b40084cf520002003a000002eb000100370022
:1014c40014002000040078000080fa0000000600e8
:1014d4000200fa000042eb00144798000042eb00bf
:1014e400044f78000e02e80013c0b3000401780032
:1014f40051c7b30000cdb300dc0307000e02e800bf
:1015040013c0b3000401780091c1b30000cdb3004f
:10151400d60307001e429000e14f52000200320041
:1015240014c0b300044f78000e02e80013c0b300e7
:1015340004017800a1c1b30000cdb300cb030700c0
:101544001e429000e34f52000200320014c0b30068
:10155400044f78000e02e80013c0b30004017800c1
:10156400b1c1b30000cdb300c00307001e42900018
:10157400f84f52000200320014c0b300044f780048
:101584000e02e80013c0b30004017800c1c1b30027
:1015940000cdb300b50307001e429000f84f52007f
:1015a4000200320014c0b300044f78000e02e800b9
:1015b40013c0b30004017800d1c1b30000cdb3005f
:1015c400aa0307001e429000e04f520002003200be
:1015d40014c0b300044f78000e02e80013c0b30037
:1015e40004017800e1c1b30000cdb3009f030700fc
:1015f4001e429000e04f52000200320014c0b300bb
:10160400044f78000e02e80013c0b3000401780010
:10161400f1c1b30000cdb300940307001e42900053
:10162400e04f52000200320014c0b300044f7800af
:101634000e02e80013c0b3000401780001c2b30035
:1016440000cdb300890307001e429000e04f520012
:101654000200320014c0b300044f78000e02e80008
:1016640013c0b3000401780011c2b30000cdb3006d
:101674007e0307001e429000e04f52000200320039
:1016840014c0b300044f78000e02e80013c0b30086
:101694000401780021c2b30000cdb3007303070036
:1016a4001e429000e04f52000200320014c0b3000a
:1016b400044f78000e02e80013c0b3000401780060
:1016c40031c2b30000cdb300680307001e4290008e
:1016d400e04f52000200320014c0b300044f7800ff
:1016e4000e02e80013c0b3000401780041c2b30045
:1016f40000cdb3005d0307001e429000e04f52008e
:101704000200320014c0b300044f78000e02e80057
:1017140013c0b3000401780051c2b30000cdb3007c
:10172400520307001e429000e04f520002003200b4
:1017340014c0b300044f78000e02e80013c0b300d5
:101744000401780061c2b30000cdb3004703070071
:101754001e429000e04f52000200320014c0b30059
:10176400044f78000e02e80013c0b30004017800af
:1017740071c2b30000cdb3003c0307001e429000c9
:10178400e04f52000200320014c0b300044f78004e
:101794000e02e80013c0b3000401780081c2b30054
:1017a40000cdb300310307001e429000e04f520009
:1017b4000200320014c0b300044f78000e02e800a7
:1017c40013c0b3000401780091c2b30000cdb3008c
:1017d400260307001e429000e04f52000200320030
:1017e40014c0b300044f78000e02e80013c0b30025
:1017f40004017800a1c2b30000cdb3001b030700ad
:101804001e429000e04f52000200320014c0b300a8
:10181400044f78000e02e80013c0b30004017800fe
:10182400b1c2b30000cdb300100307001e42900004
:10183400e04f52000200320014c0b300044f78009d
:101844000e02e80013c0b30004017800c1c2b30063
:1018540000cdb300050307001e429000e04f520084
:101864000200320014c0b300044f78000e02e800f6
:1018740013c0b30004017800d1c2b30000cdb3009b
:10188400fa0207001e429000e04f520002003200ac
:1018940014c0b300044f78000e02e80013c0b30074
:1018a40004017800e1c2b30000cdb300ef020700e9
:1018b4001e429000e04f52000200320014c0b300f8
:1018c400044f78000e02e80013c0b300040178004e
:1018d400f1c2b30000cdb300e40207001e42900041
:1018e400e04f52000200320014c0b300044f7800ed
:1018f4000e02e80013c0b3000401780001c3b30072
:1019040000cdb300d90207001e429000e04f520000
:101914000200320014c0b300044f78000e02e80045
:1019240013c0b3000401780011c3b30000cdb300a9
:10193400ce0207001e429000e04f52000200320027
:1019440014c0b300044f78000e02e80013c0b300c3
:101954000401780021c3b30000cdb300c302070023
:101964001e429000e04f52000200320014c0b30047
:10197400044f78000e02e80013c0b300040178009d
:1019840031c3b30000cdb300b80207001e4290007b
:10199400e04f52000200320014c0b300044f78003c
:1019a4000e02e80013c0b3000401780041c3b30081
:1019b40000cdb300ad0207001e429000e04f52007c
:1019c4000200320014c0b300044f78000e02e80095
:1019d40013c0b3000401780051c3b30000cdb300b9
:1019e400a20207001e429000e04f520002003200a3
:1019f40014c0b300044f78000e02e80013c0b30013
:101a04000401780071c3b30000cdb300970207004e
:101a14001e429000e04f52000200320014c0b30096
:101a2400044f78000e02e80013c0b30004017800ec
:101a340081c3b30000cdb3008c0207001e429000a6
:101a4400e04f52000200320014c0b300044f78008b
:101a54000e02e80013c0b3000401780031c6b300dd
:101a640000cdb300810207001e429000e04f5200f7
:101a74000200320014c0b300044f78000e02e800e4
:101a840013c0b3000401780041c6b30000cdb30015
:101a9400760207001e429000e04f5200020032001e
:101aa40014c0b300044f78000e02e80013c0b30062
:101ab4000401780051c6b30000cdb3006b020700e7
:101ac4001e429000e04f52000200320014c0b300e6
:101ad400044f78000e02e80013c0b300040178003c
:101ae40061c6b30000cdb300600207001e4290003f
:101af400e04f52000200320014c0b300044f7800db
:101b04000e02e80013c0b3000401780071c6b300ec
:101b140000cdb300550207001e429000e04f520072
:101b24000200320014c0b300044f78000e02e80033
:101b340013c0b3000401780081c6b30000cdb30024
:101b44004a0207001e429000e04f52000200320099
:101b540014c0b300044f78000e02e80013c0b300b1
:101b64000401780091c6b30000cdb3003f02070022
:101b74001e429000e04f52000200320014c0b30035
:101b8400044f78000e02e80013c0b300040178008b
:101b9400a1c6b30000cdb300340207001e4290007a
:101ba400e04f52000200320014c0b300044f78002a
:101bb4000e02e80013c0b30004017800b1c6b300fc
:101bc40000cdb300290207001e429000e24f5200ec
:101bd4000200320014c0b300044f78000e02e80083
:101be40013c0b30004017800c1c6b30000cdb30034
:101bf4001e0207001e429000e04f52000200320015
:101c040014c0b300044f78000e02e80013c0b30000
:101c14000401780041c7b30000cdb30013020700ec
:101c24001e429000e04f52000200320014c0b30084
:101c3400044f78009e4278000582fb00040078007f
:101c44000080fa00000006000200fa000002eb0027
:101c5400040f78006022b800f44088000541880031
:101c64006022b80014418800254188006022b80031
:101c740034418800454188000002eb00040f7800dd
:101c84004f00370013c0b300d28a200031c4b30020
:101c940000cdb300f501070013c0b300c28a2000d1
:101ca40041c4b30000cdb300f001070013c0b3007a
:101cb400f28a200051c4b30000cdb300eb01070049
:101cc40013c0b300e28a200061c4b30000cdb300a6
:101cd400e601070013c0b300128b200071c4b300e7
:101ce40000cdb300e101070013c0b300028b200054
:101cf40081c4b30000cdb300dc010700d48a200006
:101d0400144278000482fb00c822dd00c48a20004b
:101d1400144278000482fb00050272006123b900ba
:101d2400f4408000054180000602420087824a0098
:101d3400f440880005418800f48a200014427800a9
:101d44000482fb00c822dd00e48a200014427800eb
:101d54000482fb00050272006123b9001441800073
:101d6400254180000602420087824a00144188000f
:101d740025418800148b2000144278000482fb0063
:101d8400c822dd00048b2000144278000482fb008a
:101d9400050272006123b90034418000454180008e
:101da4000602420087824a00344188004541880087
:101db40000f4210001002000d00207001e0fe800fb
:101dc400340620009e027800848f5200adff340058
:101dd400f440800005418000823821000300200087
:101de4000400be009cfb07000002be000402780051
:101df400c4458800144180002541800082382100b8
:101e0400030020000400be0093fb07000002be0094
:101e140004027800d44588003441800045418000a4
:101e240082382100030020000400be008afb070062
:101e34000002be0004027800e44588000080fa0035
:101e4400000006000000fa0013c0b300328b20002b
:101e5400b1c3b30000cdb3008401070013c0b300c5
:101e6400228b2000c1c3b30000cdb3007f01070063
:101e740013c0b300528b2000d1c3b30000cdb30014
:101e84007a01070013c0b300428b2000e1c3b30002
:101e940000cdb3007501070013c0b300728b20009e
:101ea400f1c3b30000cdb3007001070013c0b30049
:101eb400628b200001c4b30000cdb3006b010700a6
:101ec400348b2000144278000482fb00c822dd0019
:101ed400248b2000144278000482fb000502720067
:101ee40004408800548b2000144278000482fb00d4
:101ef400c822dd00448b2000144278000482fb00d9
:101f04000502720014408800748b2000144278008b
:101f14000482fb00c822dd00648b20001442780098
:101f24000482fb0005027200244088000080fa004d
:101f3400000006000000fa00889fbe008a9fbe00d1
:101f440014408000cfa2de000400be0053fb070053
:101f54000004be0004408000cfa2de000400be00e6
:101f64004efb07000002be000401be000400be00d8
:101f7400a0fb07000002be000405be002440800050
:101f8400cfa2de000400be0044fb07000002be0036
:101f94000401be000400be0096fb07000002be0060
:101fa4000401be000a00be0027fa07000002be00ba
:101fb4000400be00c3fb07000002be000401be0013
:101fc4000800be00e2fa07000002be000400be00e2
:101fd4007afa07000002be0042e1220053262400e0
:101fe4000400be0083fb07000002be001442880008
:101ff4002542880024408000cfa2de000400be00f9
:1020040026fb07000004be0004408000cfa2de00cf
:102014000400be0021fb07000002be000401be0054
:102024000400be0073fb07000002be000405be00ee
:1020340014408000cfa2de000400be0017fb07009e
:102044000002be000401be000400be0069fb0700dc
:102054000002be000401be000a00be00faf9070037
:102064000002be000400be0096fb07000002be0092
:102074000401be000800be00b5fa07000002be005d
:102084000400be004dfa07000002be0042e1220037
:10209400532624000400be0056fb07000002be00c5
:1020a40054428800654288004f05be004f04be00bc
:1020b4000080fa00000006000000fa0013c0b3001c
:1020c400d28a200031c4b30000cdb300e70007007a
:1020d40013c0b300c28a200041c4b30000cdb300d2
:1020e400e200070013c0b300f28a200051c4b30019
:1020f40000cdb300dd00070013c0b300e28a200066
:1021040061c4b30000cdb300d800070013c0b3000e
:10211400128b200071c4b30000cdb300d3000700bc
:1021240013c0b300028b200081c4b30000cdb30000
:10213400ce000700d48a2000144278000482fb00f9
:10214400c822dd00c48a2000144278000482fb0007
:1021540085027200c445800004825200c440880095
:10216400f48a2000144278000482fb00c822dd00b7
:10217400e48a2000144278000482fb008502720085
:10218400d445800004825200d4408800148b20007f
:10219400144278000482fb00c822dd00048b200076
:1021a400144278000482fb0085027200e44580003a
:1021b40004825200e4408800c4408000cfa2de00c4
:1021c4000400be00b5fa07000002be0002002000b1
:1021d400532824000400be005dfa07000002be007c
:1021e4003440880045408800d4408000cfa2de00ff
:1021f4000400be00a9fa07000002be00020020008d
:10220400532824000400be0051fa07000002be0057
:102214005440880065408800e4408000cfa2de007e
:102224000400be009dfa07000002be000200200068
:10223400332824000400be0045fa07000002be0053
:102244007440880085408800344080004540800008
:10225400a2702d0033b223000400be00e5fa07008b
:102264000002be000403be005441800065418000aa
:102274000401be000600be0073f907000002be00a0
:1022840054418800654188005440800065408000c6
:10229400a2702d0033b223000400be00d5fa07005b
:1022a4000002be000403be0074418000854180002a
:1022b4000401be000600be0063f907000002be0070
:1022c4007441880085418800744080008540800006
:1022d400a2702d0033b223000400be00c5fa07002b
:1022e4000002be000403be0094418000a5418000aa
:1022f4000401be000600be0053f907000002be0040
:1023040094418800a54188000080fa00000006007e
:102314000000fa00c41080000482ea004f22de00ac
:1023240004427800044078000080fa0000000600af
:102334000600fa0020479800314798004247980069
:10234400bdf8070030f907000000000034108000d9
:1023540061026200e00f5200fcff3a008620a900ef
:102364002e40900006f90700000000004410800091
:1023740061026200e00f5200fcff3a00000000001e
:102384003404800062026200e00f5200fcff32005d
:102394000000000045108000040028000482620050
:1023a400e00f5200fbff3a008620a9003e40900057
:1023b400f3f807000000000044108000610262008e
:1023c400e00f5200fcff3a000000000034048000db
:1023d40062026200e00f5200fcff320000000000c5
:1023e400451080000400280004826200e00f5200bf
:1023f400fbff3a008620a9004e409000e0f8070059
:10240400000000004410800061026200e00f5200ee
:10241400fcff3a0000000000340480006202620005
:10242400e00f5200fcff3200000000004510800065
:102434000400280004826200e00f5200fbff3a000f
:102444008620a900f4f80700000000003410800082
:1024540064026200e00f5200fcff3a001e42780062
:10246400044078000080fa00000006000600fa002c
:10247400004f7800114798001207980043479800ce
:102484006df80700e0f80700000000003410800039
:1024940061026200e00f5200fcff3a008620a900ae
:1024a4001e407800b6f807000000000044108000c9
:1024b40061026200e00f5200fcff3a0000000000dd
:1024c4003404800062026200e00f5200fcff32001c
:1024d400000000004510800004002800048262000f
:1024e400e00f5200fbff3a008620a9001e40900036
:1024f400a3f807000000000044108000610262009d
:10250400e00f5200fcff3a00000000003404800099
:1025140062026200e00f5200fcff32000000000083
:10252400451080000400280004826200e00f52007d
:10253400fbff3a008620a900aff807000000000066
:102544003410800062026200e00f5200fcff3a0087
:10255400000000008620a9001e4278000404a000a8
:102564000440780086f80700000000004410800052
:1025740061026200e00f5200fcff3a00000000001c
:102584003404800062026200e00f5200fcff32005b
:10259400000000004510800004002800048262004e
:1025a400e00f5200fbff3a008620a9004e42900043
:1025b4000482fb00823e20009e009000040078000c
:1025c4003af807007ef807001bf8070092f80700a6
:1025d400000000003410800064026200e00f52002a
:1025e400fcff3a000080fa00000006000a00fa002e
:1025f4006022b800048fbe006022b800240798004f
:10260400350798000002eb00440798000002eb0035
:1026140044079800180037000afe070045fe07002b
:1026240014428000254280000401be001e00be004a
:1026340085f807000002be00048fbe00344280000b
:10264400454280000401be002e009000be009000b0
:102654007df807000002be002407980035079800a3
:1026640000f4210001002000a40007004e029000a5
:102674000402e80044079800ce02900034062000cb
:10268400848f5200e4ff340002002000832c2400d5
:102694001e00be002ef907000002be00d4428800ce
:1026a400e542880002002000832c24002e009000c4
:1026b400be00900026f907000002be00f442880024
:1026c4000543880002002000832c24001e00be0065
:1026d4001ff907000002be005441880065418800cc
:1026e40002002000832c24002e009000be009000e5
:1026f40017f907000002be00744188008541880074
:102704000080fa00000006000600fa001007980096
:102714002107980014002000040f78000002eb0049
:1027240004278800c042a900c062a900c442a800ce
:10273400c462a8000d00070081fa070052fb0700dd
:1027440063fb070000027800040f78001e02780083
:10275400e10f5200f8ff32003bfd0700a3ff070022
:10276400150007009460a800ffff37000600fa0078
:102774000002eb00040f78000002eb00140798003d
:102784000002eb00240798006bf707000000eb0041
:1027940071f7070004002800040f78007402200079
:1027a40024079800ae0090001e00780009f8070086
:1027b4000080fa00000006000000fa009460a900fe
:1027c40005e1a90005a1a90004c1a900240880000d
:1027d4000440a0000450a000240888000421a9009b
:1027e4002405800004c0a10004d0a10004e0a000de
:1027f4002405880004002400140888000002eb006b
:102804000408880005e1a8000080fa000000060022
:102814000000fa008620a9000080fa0000400600ab
:102824003600f800809fbe00829fbe00849fbe00d9
:10283400869fbe000000fa008460a9009460a9008d
:10284400241680004222de00614262000404a200d9
:10285400614262000482fb00610262004222dd00e8
:1028640026168000b5ff2f00850263000502720062
:102874002416880010fe070072fd0700adfd070056
:102884009460a8000080fa004f03be004f02be000f
:102894004f01be004f00be003600f90000400600a4
:020000040000fa
:1028a40000080000ac00000000000000ac080000bc
:1028b400260000000200000020202000202020002c
:1028c4002020200020202000acfff400fffdff00aa
:1028d4000000d000410000004843000000e0400038
:1028e4000000200042000000c8410000d20800009f
:0c28f400020000000000000000000000d6
:020000040000fa
:10290000f03fb1000180b10006003500ee03090080
:1029100000000000403fb1000180b100fbff3d001e
:102920001000b000203fb000020035000080090018
:08293000000000000000060099
:020000040000fa
:0200000401f009
:04000c00f8ff0000f9
:020000040000fa
:0200000401f009
:040014005fff00008a
:00000001FF
