:020000040000fa
:080000000002040000000000f2
:020000040000fa
:100008009a0200009a0200009a0200009a02000078
:100018009a0200009a0200009a0200009a02000068
:100028009a0200009a0200009a0200002a160000b4
:100038009a0200009a0200009a0200009a02000048
:10004800721800009a0200009a0200009a0200004a
:100058009a0200009a0200009a0200009a02000028
:100068009a020000221600009a0200009a0200007c
:100078009a0200009a0200009a0200009a02000008
:100088009a0200009a0200009a0200009a020000f8
:100098009a0200009a0200009a0200009a020000e8
:1000a8009a0200009a0200009a0200009a020000d8
:1000b8009a0200009a0200009a0200009a020000c8
:1000c8009a0200009a0200009a0200009a020000b8
:1000d8009a0200009a0200009a0200009a020000a8
:1000e8009a0200009a0200009a0200009a02000098
:1000f8009a0200009a0200009a0200009a02000088
:100108009a0200009a0200009a0200009a02000077
:100118009a0200009a0200009a0200009a02000067
:100128009a0200009a0200009a0200009a02000057
:100138009a0200009a0200009a0200009a02000047
:100148009a0200009a0200009a0200009a02000037
:100158009a0200009a0200009a0200009a02000027
:100168009a0200009a0200009a0200009a02000017
:100178009a0200009a0200009a0200009a02000007
:100188009a0200009a0200009a0200009a020000f7
:100198009a0200009a0200009a0200009a020000e7
:1001a8009a0200009a0200009a0200009a020000d7
:1001b8009a0200009a0200009a0200009a020000c7
:1001c8009a0200009a0200009a0200009a020000b7
:1001d8009a0200009a0200009a0200009a020000a7
:1001e8009a0200009a0200009a0200009a02000097
:0801f8009a0200009a020000c7
:020000040000fa
:100208009a0200009a0200009a0200009a02000076
:100218009a0200009a0200009a0200009a02000066
:100228009a0200009a0200009a0200002a160000b2
:100238009a0200009a0200009a0200009a02000046
:10024800721800009a0200009a0200009a02000048
:100258009a0200009a0200009a0200009a02000026
:100268009a020000221600009a0200009a0200007a
:100278009a0200009a0200009a0200009a02000006
:100288009a0200009a0200009a0200009a020000f6
:100298009a0200009a0200009a0200009a020000e6
:1002a8009a0200009a0200009a0200009a020000d6
:1002b8009a0200009a0200009a0200009a020000c6
:1002c8009a0200009a0200009a0200009a020000b6
:1002d8009a0200009a0200009a0200009a020000a6
:1002e8009a0200009a0200009a0200009a02000096
:1002f8009a0200009a0200009a0200009a02000086
:100308009a0200009a0200009a0200009a02000075
:100318009a0200009a0200009a0200009a02000065
:100328009a0200009a0200009a0200009a02000055
:100338009a0200009a0200009a0200009a02000045
:100348009a0200009a0200009a0200009a02000035
:100358009a0200009a0200009a0200009a02000025
:100368009a0200009a0200009a0200009a02000015
:100378009a0200009a0200009a0200009a02000005
:100388009a0200009a0200009a0200009a020000f5
:100398009a0200009a0200009a0200009a020000e5
:1003a8009a0200009a0200009a0200009a020000d5
:1003b8009a0200009a0200009a0200009a020000c5
:1003c8009a0200009a0200009a0200009a020000b5
:1003d8009a0200009a0200009a0200009a020000a5
:1003e8009a0200009a0200009a0200009a02000095
:0803f8009a0200009a020000c5
:020000040000fa
:100400002f9220000eff20000e0188000000000047
:10041000000020000000e000020032000001200087
:10042000200288000c000700e08921000100200064
:1004300011000700000020000000e0000200320070
:100440000000020000000000401402000000000054
:100450000040da000000fe004440a90080002000b7
:100460000000e0000300320000002000a00188002e
:100470004440a80000000600910188008000780038
:100480000000eb0015003700e280400032a0b4000d
:100490009101ba00e280400032a0b4009102ba009b
:1004a000e280400032a0b4000002eb00472bde00e7
:1004b000f507b200602ce10004003a000059eb009f
:1004c0008301e900fdff3e00040037006128e100e0
:1004d000010032000082eb00040007001101ba00a5
:1004e0000200e000e8ff3a00000006003159ba00bf
:1004f0008301e9000c0032002159ba008301e900b0
:10050000080032000400e00003003a00e2804000ee
:1005100032a0b400f5ff370011d9ba008301e90019
:10052000faff3a008100e800e180400032a0b40008
:10053000000006000040da000000fe000000fa00a3
:1005400007e2a9009600a9009620a9008600a9004c
:100550008620a9000080fa00000006000200fa00d0
:10056000000f78008600a9008620a9001e027800ee
:10057000044278006742620067426200674262009c
:100580000482fb00670262006605800085ff2f0081
:1005900085026300050272006405880004072000dc
:1005a0001e0262004422de000442780067426200bc
:1005b0000482fb00670262004422dd0066058000c1
:1005c000f5f82f00850263000502720064058800bb
:1005d0009e027800688262004322de0004427800b6
:1005e000614262000482fb0061026200b604800086
:1005f000e5ff2f008502630005027200b404880045
:10060000040820001e0262004722de000442780037
:10061000614262000482fb00610262000402420047
:10062000b6048000d5ff2f0085026300050272002a
:10063000b40488000080fa00000006000000fa0000
:10064000000000003410800061026200e00f5200e0
:10065000fcff3a003410800062026200e00f52009a
:10066000f8ff3a003410800064026200e00f52008c
:10067000f4ff3a003410800068026200e00f52007c
:10068000f0ff3a003410800070026200e00f520068
:10069000ecff3a0045108000040024000482620050
:1006a000e00f5200e7ff3a000080fa000000060069
:1006b0000800fa00100798002107980032079800f8
:1006c0000002eb00040f7800270037000662a80044
:1006d000080037009e0278003e029000848f52008e
:1006e000020031001e0fe800020037001e029000d9
:1006f000210037004d00070000427800e04f520013
:10070000f4ff32000002eb00040f780004108000b8
:10071000844278002e029000054a78002e02900054
:100720000402e800240798001e0290000402e90079
:10073000140798001e029000e00f520003003a00d8
:1007400006a2a8000682a8000300370006a2a9009e
:100750000682a800000000003410800070026200d1
:10076000e00f5200fcff3a001e029000e00f520022
:10077000d6ff3a000002eb00040078000080fa0087
:10078000000006000200fa00004f78009e42780048
:100790000582fb001410880045108000040820002a
:1007a00004826200e00f52000200320000c2eb003f
:1007b000010037000042eb00044078000080fa009e
:1007c000000006000000fa0006a2a8000682a800a9
:1007d0000080fa00000006000400fa00000f780014
:1007e000110798001e029000241088001e02780055
:1007f000341088000080fa00000006000000fa00b3
:100800000622a8000080fa00000006000000fa009e
:100810000602a8000080fa00000006000000fa00ae
:100820000642a8000080fa00000006000000fa005e
:10083000441080000402d10061426200044078004c
:100840000080fa000000060003f0a200889fbe00ae
:100850008a9fbe008c1f78006c0107007301330073
:100860006450e1004f0032006420e1005200320089
:1008700003826c0007003b000905d0000306d0008e
:10088000820f54000c065d000200390002003200a5
:1008900089017800030678008582550004003d0038
:1008a0000003fd008103fd008502ea008b85420004
:1008b000840f720002003b0060001000e08018000e
:1008c0006011b8000005eb007a28e1000a00390049
:1008d00006007800c75ddd00f707b200878075006d
:1008e0002d003700828171000a01780061056000e7
:1008f0008180d1000080d3008502e900f9ff3b0030
:10090000060440008784480002003b006004140095
:10091000e0841c000988a300070032008a8171006e
:1009200082817100610164008904d1000884d300d0
:100930008b05e800170037000978a30013003a0080
:100940000b00e000130034008b05e90008044400ac
:1009500089844c000a4474000978a3000d003a0011
:100960000b00e000070034008b05e9000804440098
:1009700089844c0001003a000b0020000978a30094
:10098000f7ff32000001eb000200370082817100a6
:100990000a017800e20007000cf0a70001f0a000b7
:1009a0002b0137006420e10002003a00838f6c00c5
:1009b0002b0133000801be000200be0024013700f5
:1009c000889fbe008a9fbe008c9fbe000004be00b0
:1009d000f90007000800be00890678006420e100e5
:1009e00008003900040032000160a000120220005b
:1009f000024988005300370091fc2300b0fd20001d
:100a00004e0037000006eb0009f0a10003f82300b8
:100a1000020020000800be009f000700060034000e
:100a200001f82300000020000801be004900070073
:100a30000004be002c0020000800be0093e8230044
:100a4000320a230094000700120034000801be009f
:100a5000d1fd2300703d2b007cff07000005be0088
:100a6000b3f32300f27a26000800be00ff0007005f
:100a700003f823000200200073ff07000801be00f6
:100a800072ff07000a01be00320007000004be002a
:100a90000c06e8000800be0001f0a10002002000e2
:100aa000039823007c0007000800be0016003500f4
:100ab0000801be00ed0007000005be0032cd2c008d
:100ac00043fb230061ff0700809fbe0012692800de
:100ad00003d52b000a00be00e4000700620f2100ce
:100ae00013ef2b0059ff07000a01be00df000700cb
:100af0004f01be00170007000801be00db00070021
:100b00000801be0051ff07000c00e0000b0032009e
:100b10000c10a70001f0a200b2fd200093fc2300fe
:100b20006260e1000400320022a9200063f023008b
:100b30000c10a70063f8230044ff07000df0a70086
:100b400001f0a2004f06be004f05be004f04be00dc
:100b500000000600889fbe008a9fbe008c1f7800a0
:100b6000aa000700b100330003866c006450e10066
:100b70002e0032006420e100330032006150e100b9
:100b80002f0032006120e1003100320085855500e0
:100b9000eb07b00009002000080420000500370022
:100ba0000804440089844c000a0031000603430015
:100bb00087834b000001530081815b00f8ff330005
:100bc0000203be000800a0000804440089844c0011
:100bd000f6ff3900c639dd008301730001003200e1
:100be000130020008904d1000884d3000998a300d1
:100bf000050032000800a7000300a0008904d1000e
:100c00000884d3008b05e8008904d1000884d30050
:100c10000001eb000281d2004100070001f0a100b9
:100c20000cf0a70001f0a000890037006420e1006b
:100c30008b0032000801be000200be00f7ff370043
:100c40006120e100860032006000b800f3ff370049
:100c50000000200001f82700f0ff3700839f6800a4
:100c60000100e00002003d0060001000e08018007c
:100c70000300e00002003d0060011100e081190066
:100c8000e30007004f00e00002003b00600010009e
:100c9000e08018000000060014002000ec0037007f
:100ca000f4ff2f00ea0037000001be0042000700f9
:100cb0000470a70003f0a10003f8a30013003a009a
:100cc0006509b10010003200090035006928e10013
:100cd000020035000100280000000500000040006f
:100ce000818048008502e900fcff3a000000060010
:100cf000f88f4200050035008100d1000080d3004c
:100d00008502e800fcff3a00000006008000eb00ce
:100d1000000005004f89de0082017800e7003700ff
:100d200081002000618055000b003d000b00200079
:100d300061fe2f000100e1001d003400828171007e
:100d4000610164008904d1000884d3000000e80038
:100d5000faff3a0071002000610064000300700097
:100d6000020060000900320061044400e0844c008d
:100d70000988a500050032008b05e8006808e1003d
:100d800002003a008904d1000884d300f20f200049
:100d90000258e10005003d00c75ddd00f907b20023
:100da0008980750008007800000006000bf8270015
:100db0008b00780000000500c70ade00f107b200d2
:100dc000f50fb20008003200e1cf4200020032000d
:100dd0000170a00024000500810f700001003200a6
:100de0000408050044000500810f700002003a006d
:100df000140005008502e9000000400081c04800a1
:100e0000fcff3b000170a000240005000004be00b0
:100e1000e9ff07000003be000405be000200be009b
:100e2000e5ff0700844f7500000006000200be00c9
:100e30006450e100050036006420e1000200360045
:100e40000968a30001003a000800be000160a0008c
:100e50004f0678004f05be004f04be00000006009c
:100e6000f0ff2f00f1ff2700f9ff3700889fbe0039
:100e70008a9fbe008c1f7800e4ff0700ebff330061
:100e800003866c006450e100240032006420e1001d
:100e9000270032006150e100220032006120e100b1
:100ea000210032008b854200eb07b1000134b8000d
:100eb000003ab8000804420089844a00013ab800a8
:100ec0000030b8008880400009014a000400330067
:100ed0000000400081804800020149008b05e900c4
:100ee000c909dd00830170000100320013002000f9
:100ef000c814de004814dd004709de001200b2000d
:100f0000c808de000884700085ff070001f0a1001a
:100f10000cf0a70001f0a000cdff37006120e10038
:100f2000cfff32000801be000200be00f7ff37000d
:100f30006150e100fcff3a00c9ff3700889fbe0006
:100f40008a9fbe008c1f78000004be009aff070035
:100f50000478a30026003a006120e1002500320059
:100f600009f8a30025003a006420e10021003200c6
:100f7000f507b1000508a3000200320000004000a0
:100f8000818048006044b800031020000200200067
:100f900000004000818048000805440089854c001d
:100fa0000a0541008b8549000a0550008b855800d1
:100fb000030033000a00be0002047400838474003e
:100fc0008301d1000281d300830f7100f0ff3a004a
:100fd0008904d1000884d3006001490082017800af
:100fe000c1adde00fb07b0004dff070098ff3700e2
:100ff0000960a0000800be0095ff37001202200023
:1010000002498800f0ff2f00f1ff270090ff370012
:101010006022b800060220000000d0008180d200cb
:101020000482d2008582d2000000a0000202520099
:1010300083825a00030031000202420083824a0088
:101040000000a1000603e900f3ff3a0000000600db
:10105000889fbe008a9fbe00841f78006bff070038
:101060004f00780011003300f0ff2f00838f6c00d9
:1010700006003b00040565000a00a70008003700d1
:1010800009f0a6001000200008003700820f54006d
:10109000838f5c00030039001000200001003e0037
:1010a0000000200009f0a7000000ea004f05be0084
:1010b0004f04be000000e00000000600881f78001a
:1010c000030478000300e00007003d00600010000a
:1010d000e080180060011900e081190002003b0067
:1010e00001f02d00030037000400070008f0a700fe
:1010f00001f0a0004f04780000000600889fbe00a9
:101100008a9fbe0000827000040271000482710098
:10111000260032000004be000200be006011b800cc
:101120006b092000950220000182cf000a003900df
:101130000541b1000082cf00070039000541b10030
:101140000982cf00040039000541b1000882cf00b8
:10115000010039000541b100054252001200320081
:101160000a003b0082817100610164008100d100ae
:101170000080d3008984d3000884d3008b05e80065
:101180000442e800f7ff3a00070037000804440073
:1011900089844c0000004800818048008b05e900ec
:1011a0000442e900f9ff3a00ddfe07004f05be00ea
:0811b0004f04be000000060020
:020000040000fa
:1011b80096010000a0010000aa010000ac08000090
:020000040000fa
:1011c8000200fa0002c8b300b1c6b30000cdb300f4
:1011d8009b04070000f4210001002000ec07070031
:1011e8000041eb00b1c6b30000cdb3009404070082
:1011f80013c0b3000e01780051c7b30000cdb3008f
:10120800de0407009e42780084c6b30084cf5200f3
:10121800ae003a0012c0b30091c1b30000cdb300d4
:101228008704070032c0b300a1c1b30000cdb300ea
:101238008304070082c1b300b1c1b30000cdb3007d
:101248007f04070082c1b300c1c1b30000cdb30061
:101258007b0407000041eb00d1c1b30000cdb3000f
:10126800770407000041eb00e1c1b30000cdb300f3
:10127800730407000041eb00f1c1b30000cdb300d7
:101288006f0407000041eb0001c2b30000cdb300ba
:101298006b0407000041eb0011c2b30000cdb3009e
:1012a800670407000041eb0021c2b30000cdb30082
:1012b800630407000041eb0031c2b30000cdb30066
:1012c8005f0407000041eb0041c2b30000cdb3004a
:1012d8005b0407000041eb0051c2b30000cdb3002e
:1012e800570407000041eb0061c2b30000cdb30012
:1012f800530407000041eb0071c2b30000cdb300f6
:101308004f0407000041eb0081c2b30000cdb300d9
:101318004b0407000041eb0091c2b30000cdb300bd
:10132800470407000041eb00a1c2b30000cdb300a1
:10133800430407000041eb00b1c2b30000cdb30085
:101348003f0407000041eb00c1c2b30000cdb30069
:101358003b0407000041eb00d1c2b30000cdb3004d
:10136800370407000041eb00e1c2b30000cdb30031
:10137800330407000041eb00f1c2b30000cdb30015
:101388002f0407000041eb0001c3b30000cdb300f8
:101398002b0407000041eb0011c3b30000cdb300dc
:1013a800270407000041eb0021c3b30000cdb300c0
:1013b800230407000041eb0031c3b30000cdb300a4
:1013c8001f0407000041eb0041c3b30000cdb30088
:1013d8001b0407000041eb0051c3b30000cdb3006c
:1013e800170407000041eb0071c3b30000cdb30040
:1013f800130407000041eb0081c3b30000cdb30024
:101408000f0407000041eb0031c6b30000cdb30064
:101418000b0407000041eb0041c6b30000cdb30048
:10142800070407000041eb0051c6b30000cdb3002c
:10143800030407000041eb0061c6b30000cdb30010
:10144800ff0307000041eb0071c6b30000cdb300f5
:10145800fb0307000041eb0081c6b30000cdb300d9
:10146800f70307000041eb0091c6b30000cdb300bd
:10147800f30307000041eb00a1c6b30000cdb300a1
:10148800ef03070022c0b300b1c6b30000cdb3001c
:10149800eb03070013c0b3000e017800b1c6b30018
:1014a80000cdb300350407000041eb00c1c6b3000e
:1014b80000cdb300e20307000041eb0041c7b300d1
:1014c80000cdb300de030700020037000042eb0046
:1014d800044f78001e427800044078000080fa002b
:1014e800000006000200fa000042eb00044f7800fa
:1014f80013c0b3000e01780051c7b30000cdb3008c
:101508001e0407009e42780084c6b30084cf5200b0
:1015180002003a000002eb0001003700140020002e
:10152800040078000080fa00000006000200fa00bb
:101538000042eb00144798000042eb00044f78008b
:101548000e02e80013c0b3000401780051c7b300cd
:1015580000cdb300090407000e02e80013c0b30071
:101568000401780091c1b30000cdb3000304070063
:101578001e429000e14f52000200320014c0b30036
:10158800044f78000e02e80013c0b300040178008d
:10159800a1c1b30000cdb300f80307001e429000bc
:1015a800e34f52000200320014c0b300044f780029
:1015b8000e02e80013c0b30004017800b1c1b30003
:1015c80000cdb300ed0307001e429000f84f520013
:1015d8000200320014c0b300044f78000e02e80085
:1015e80013c0b30004017800c1c1b30000cdb3003b
:1015f800e20307001e429000f84f5200020032003a
:1016080014c0b300044f78000e02e80013c0b30002
:1016180004017800d1c1b30000cdb300d70307009f
:101628001e429000e04f52000200320014c0b30086
:10163800044f78000e02e80013c0b30004017800dc
:10164800e1c1b30000cdb300cc0307001e429000f7
:10165800e04f52000200320014c0b300044f78007b
:101668000e02e80013c0b30004017800f1c1b30012
:1016780000cdb300c10307001e429000e04f5200a6
:101688000200320014c0b300044f78000e02e800d4
:1016980013c0b3000401780001c2b30000cdb30049
:1016a800b60307001e429000e04f520002003200cd
:1016b80014c0b300044f78000e02e80013c0b30052
:1016c8000401780011c2b30000cdb300ab030700da
:1016d8001e429000e04f52000200320014c0b300d6
:1016e800044f78000e02e80013c0b300040178002c
:1016f80021c2b30000cdb300a00307001e42900032
:10170800e04f52000200320014c0b300044f7800ca
:101718000e02e80013c0b3000401780031c2b30020
:1017280000cdb300950307001e429000e04f520021
:101738000200320014c0b300044f78000e02e80023
:1017480013c0b3000401780041c2b30000cdb30058
:101758008a0307001e429000e04f52000200320048
:1017680014c0b300044f78000e02e80013c0b300a1
:101778000401780051c2b30000cdb3007f03070015
:101788001e429000e04f52000200320014c0b30025
:10179800044f78000e02e80013c0b300040178007b
:1017a80061c2b30000cdb300740307001e4290006d
:1017b800e04f52000200320014c0b300044f78001a
:1017c8000e02e80013c0b3000401780071c2b30030
:1017d80000cdb300690307001e429000e04f52009d
:1017e8000200320014c0b300044f78000e02e80073
:1017f80013c0b3000401780081c2b30000cdb30068
:101808005e0307001e429000e04f520002003200c3
:1018180014c0b300044f78000e02e80013c0b300f0
:101828000401780091c2b30000cdb3005303070050
:101838001e429000e04f52000200320014c0b30074
:10184800044f78000e02e80013c0b30004017800ca
:10185800a1c2b30000cdb300480307001e429000a8
:10186800e04f52000200320014c0b300044f780069
:101878000e02e80013c0b30004017800b1c2b3003f
:1018880000cdb3003d0307001e429000e04f520018
:101898000200320014c0b300044f78000e02e800c2
:1018a80013c0b30004017800c1c2b30000cdb30077
:1018b800320307001e429000e04f5200020032003f
:1018c80014c0b300044f78000e02e80013c0b30040
:1018d80004017800d1c2b30000cdb300270307008c
:1018e8001e429000e04f52000200320014c0b300c4
:1018f800044f78000e02e80013c0b300040178001a
:10190800e1c2b30000cdb3001c0307001e429000e3
:10191800e04f52000200320014c0b300044f7800b8
:101928000e02e80013c0b30004017800f1c2b3004e
:1019380000cdb300110307001e429000e04f520093
:101948000200320014c0b300044f78000e02e80011
:1019580013c0b3000401780001c3b30000cdb30085
:10196800060307001e429000e04f520002003200ba
:1019780014c0b300044f78000e02e80013c0b3008f
:101988000401780011c3b30000cdb300fb020700c7
:101998001e429000e04f52000200320014c0b30013
:1019a800044f78000e02e80013c0b3000401780069
:1019b80021c3b30000cdb300f00207001e4290001f
:1019c800e04f52000200320014c0b300044f780008
:1019d8000e02e80013c0b3000401780031c3b3005d
:1019e80000cdb300e50207001e429000e04f520010
:1019f8000200320014c0b300044f78000e02e80061
:101a080013c0b3000401780041c3b30000cdb30094
:101a1800da0207001e429000e04f52000200320036
:101a280014c0b300044f78000e02e80013c0b300de
:101a38000401780051c3b30000cdb300cf02070002
:101a48001e429000e04f52000200320014c0b30062
:101a5800044f78000e02e80013c0b30004017800b8
:101a680071c3b30000cdb300c40207001e4290004a
:101a7800e04f52000200320014c0b300044f780057
:101a88000e02e80013c0b3000401780081c3b3005c
:101a980000cdb300b90207001e429000e04f52008b
:101aa8000200320014c0b300044f78000e02e800b0
:101ab80013c0b3000401780031c6b30000cdb300f1
:101ac800ae0207001e429000e04f520002003200b2
:101ad80014c0b300044f78000e02e80013c0b3002e
:101ae8000401780041c6b30000cdb300a30207008b
:101af8001e429000e04f52000200320014c0b300b2
:101b0800044f78000e02e80013c0b3000401780007
:101b180051c6b30000cdb300980207001e429000e2
:101b2800e04f52000200320014c0b300044f7800a6
:101b38000e02e80013c0b3000401780061c6b300c8
:101b480000cdb3008d0207001e429000e04f520006
:101b58000200320014c0b300044f78000e02e800ff
:101b680013c0b3000401780071c6b30000cdb30000
:101b7800820207001e429000e04f5200020032002d
:101b880014c0b300044f78000e02e80013c0b3007d
:101b98000401780081c6b30000cdb30077020700c6
:101ba8001e429000e04f52000200320014c0b30001
:101bb800044f78000e02e80013c0b3000401780057
:101bc80091c6b30000cdb3006c0207001e4290001e
:101bd800e04f52000200320014c0b300044f7800f6
:101be8000e02e80013c0b30004017800a1c6b300d8
:101bf80000cdb300610207001e429000e04f520082
:101c08000200320014c0b300044f78000e02e8004e
:101c180013c0b30004017800b1c6b30000cdb3000f
:101c2800560207001e429000e24f520002003200a6
:101c380014c0b300044f78000e02e80013c0b300cc
:101c480004017800c1c6b30000cdb3004b02070001
:101c58001e429000e04f52000200320014c0b30050
:101c6800044f78000e02e80013c0b30004017800a6
:101c780041c7b30000cdb300400207001e429000e8
:101c8800e04f52000200320014c0b300044f780045
:101c98009e4278000582fb00040078000080fa006c
:101ca800000006000200fa000002eb00040f7800b2
:101cb8006022b800f4408800054188006022b8001e
:101cc80014418800254188006022b800344188000a
:101cd800454188000002eb00040f78004f003700f0
:101ce80013c0b300b28f200031c4b30000cdb300dd
:101cf8002202070013c0b300a28f200041c4b30022
:101d080000cdb3001d02070013c0b300d28f20001e
:101d180051c4b30000cdb3001802070013c0b300cc
:101d2800c28f200061c4b30000cdb30013020700c6
:101d380013c0b300f28f200071c4b30000cdb3000c
:101d48000e02070013c0b300e28f200081c4b30065
:101d580000cdb30009020700b48f200014427800b8
:101d68000482fb00c822dd00a48f20001442780002
:101d78000482fb00050272006123b900f440800070
:101d8800054180000602420087824a00f44088002c
:101d980005418800d48f2000144278000482fb009b
:101da800c822dd00c48f2000144278000482fb00a2
:101db800050272006123b9001441800025418000aa
:101dc8000602420087824a001441880025418800a3
:101dd800f48f2000144278000482fb00c822dd0042
:101de800e48f2000144278000482fb000502720090
:101df8006123b90034418000454180000602420059
:101e080087824a00344188004541880000e8230061
:101e180001002000de0407001e0fe800743e2000c9
:101e28009e027800848f5200adff3400f440800099
:101e380005418000823e2000030020000400be000f
:101e480084fb07000002be000402780034488800c2
:101e58001441800025418000823e200003002000bc
:101e68000400be007bfb07000002be0004027800ed
:101e7800444888003441800045418000823e20006b
:101e8800030020000400be0072fb07000002be0031
:101e980004027800544888000080fa000000060018
:101ea8000000fa0013c0b30012902000b1c3b300c1
:101eb80000cdb300b101070013c0b30002902000a9
:101ec800c1c3b30000cdb300ac01070013c0b30019
:101ed80032902000d1c3b30000cdb300a7010700a2
:101ee80013c0b30022902000e1c3b30000cdb300bb
:101ef800a201070013c0b30052902000f1c3b30041
:101f080000cdb3009d01070013c0b300429020002c
:101f180001c4b30000cdb30098010700149020005d
:101f2800144278000482fb00c822dd0004902000df
:101f3800144278000482fb00050272000440880005
:101f480034902000144278000482fb00c822dd008f
:101f580024902000144278000482fb0005027200dd
:101f68001440880054902000144278000482fb003a
:101f7800c822dd0044902000144278000482fb004f
:101f880005027200244088000080fa000000060064
:101f98000000fa00889fbe008a9fbe0004408000af
:101fa800cfa2de000400be0058fb07000004be00fc
:101fb80024408000cfa2de000400be0053fb0700cf
:101fc8000002be000401be000400be00a5fb07001d
:101fd8000002be000405be0014408000cfa2de004f
:101fe8000400be0049fb07000002be000401be0059
:101ff8000400be009bfb07000002be000401be00f7
:102008000a00be000ffa07000002be000400be006e
:10201800c8fb07000002be000401be000800be00a5
:10202800cafa07000002be000400be0062fa0700f8
:102038000002be0042e12200532624000400be0034
:1020480088fb07000002be00144288002542880071
:1020580024408000cfa2de000400be002bfb070056
:102068000004be0004408000cfa2de000400be00d1
:1020780026fb07000002be000401be000400be00eb
:1020880078fb07000002be000405be001440800073
:10209800cfa2de000400be001cfb07000002be0049
:1020a8000401be000400be006efb07000002be0073
:1020b8000401be000a00be00e2f907000002be00eb
:1020c8000400be009bfb07000002be000401be0026
:1020d8000800be009dfa07000002be000400be0012
:1020e80035fa07000002be0042e122005326240010
:1020f8000400be005bfb07000002be0034428800fb
:102108004542880014408000cfa2de000400be00d3
:10211800fefa07000004be0004408000cfa2de00e3
:102128000400be00f9fa07000002be000401be0068
:102138000400be004bfb07000002be000405be0001
:1021480024408000cfa2de000400be00effa0700a2
:102158000002be000401be000400be0041fb0700ef
:102168000002be000401be000a00be00b5f9070067
:102178000002be000400be006efb07000002be00a5
:102188000401be000800be0070fa07000002be008d
:102198000400be0008fa07000002be0042e1220067
:1021a800532624000400be002efb07000002be00d8
:1021b80054428800654288004f05be004f04be00a7
:1021c8000080fa00000006000000fa0013c0b30007
:1021d800b28f200031c4b30000cdb300e700070080
:1021e80013c0b300a28f200041c4b30000cdb300d8
:1021f800e200070013c0b300d28f200051c4b3001f
:1022080000cdb300dd00070013c0b300c28f20006b
:1022180061c4b30000cdb300d800070013c0b300f9
:10222800f28f200071c4b30000cdb300d3000700c3
:1022380013c0b300e28f200081c4b30000cdb30007
:10224800ce000700b48f2000144278000482fb00ff
:10225800c822dd00a48f2000144278000482fb000d
:10226800850272003448800004825200c44088000d
:10227800d48f2000144278000482fb00c822dd00bd
:10228800c48f2000144278000482fb00850272008b
:102298004448800004825200d4408800f48f200013
:1022a800144278000482fb00c822dd00e48f20007d
:1022b800144278000482fb008502720054488000b2
:1022c80004825200e4408800c4408000cfa2de00af
:1022d8000400be008dfa07000002be0002002000c4
:1022e800031824000400be0018fa07000002be000c
:1022f8003440880045408800d4408000cfa2de00ea
:102308000400be0081fa07000002be00020020009f
:10231800031824000400be000cfa07000002be00e7
:102328005440880065408800e4408000cfa2de0069
:102338000400be0075fa07000002be00020020007b
:10234800031824000400be0000fa07000002be00c3
:1023580074408800854088003440800045408000f3
:10236800a2702d0033c223000400be00bdfa07008e
:102378000002be000403be00544180006541800095
:102388000401be000600be002ef907000002be00d0
:1023980054418800654188005440800065408000b1
:1023a800a2702d0033c223000400be00adfa07005e
:1023b8000002be000403be00744180008541800015
:1023c8000401be000600be001ef907000002be00a0
:1023d80074418800854188007440800085408000f1
:1023e800a2702d0033c223000400be009dfa07002e
:1023f8000002be000403be0094418000a541800095
:102408000401be000600be000ef907000002be006f
:1024180094418800a54188000080fa000000060069
:102428000000fa00c41080000482ea004f22de0097
:1024380004427800044078000080fa00000006009a
:102448000600fa0020479800314798004247980054
:1024580078f80700ebf8070000000000341080004f
:1024680061026200e00f5200fcff3a008620a900da
:102478002e409000c1f807000000000044108000c2
:1024880061026200e00f5200fcff3a000000000009
:102498003404800062026200e00f5200fcff320048
:1024a800000000004510800004002800048262003b
:1024b800e00f5200fbff3a008620a9003e40900042
:1024c800aef80700000000004410800061026200be
:1024d800e00f5200fcff3a000000000034048000c6
:1024e80062026200e00f5200fcff320000000000b0
:1024f800451080000400280004826200e00f5200aa
:10250800fbff3a008620a9004e4090009bf8070088
:10251800000000004410800061026200e00f5200d9
:10252800fcff3a00000000003404800062026200f0
:10253800e00f5200fcff3200000000004510800050
:102548000400280004826200e00f5200fbff3a00fa
:102558008620a900aff807000000000034108000b2
:1025680064026200e00f5200fcff3a001e4278004d
:10257800044078000080fa00000006000600fa0017
:10258800004f7800114798001207980043479800b9
:1025980028f807009bf807000000000034108000ae
:1025a80061026200e00f5200fcff3a008620a90099
:1025b8001e40780071f807000000000044108000f9
:1025c80061026200e00f5200fcff3a0000000000c8
:1025d8003404800062026200e00f5200fcff320007
:1025e80000000000451080000400280004826200fa
:1025f800e00f5200fbff3a008620a9001e40900021
:102608005ef80700000000004410800061026200cc
:10261800e00f5200fcff3a00000000003404800084
:1026280062026200e00f5200fcff3200000000006e
:10263800451080000400280004826200e00f520068
:10264800fbff3a008620a9006af807000000000096
:102658003410800062026200e00f5200fcff3a0072
:10266800000000008620a9001e4278000404a00093
:102678000440780041f80700000000004410800082
:1026880061026200e00f5200fcff3a000000000007
:102698003404800062026200e00f5200fcff320046
:1026a8000000000045108000040028000482620039
:1026b800e00f5200fbff3a008620a9004e4290002e
:1026c8000482fb00823e20009e00900004007800f7
:1026d800f5f7070039f80700d6f707004df80700a7
:1026e800000000003410800064026200e00f520015
:1026f800fcff3a000080fa00000006000e00fa0015
:102708006022b800048fbe006022b8002407980039
:10271800350798006022b8004407980055079800cc
:102728000002eb00640798000002eb0064079800c1
:1027380029003700dafd070024408000cfa2de0020
:102748000400be0071f907000002be000401be00cb
:102758001e00be003bf807000002be00048fbe004a
:1027680014408000cfa2de000400be0067f9070015
:102778000002be000401be002e009000be009000c2
:1027880030f807000002be002407980035079800bb
:1027980004408000cfa2de000400be005bf9070001
:1027a8000002be000401be004e009000de00900052
:1027b80024f807000002be00440798005507980057
:1027c80000f4210001002000710207006e02900051
:1027d8000402e80064079800ee029000743e2000ae
:1027e800848f5200d3ff34004e019000de01900028
:1027f8002e009000be009000d4f807000002be0032
:102808000400be006cf807000002be0062ee220061
:10281800532624000400be0092f907000002be00ff
:1028280094418800a54188006022b800744188005e
:10283800854188002e019000be0190001e00be0058
:10284800c2f807000002be000400be005af80700e4
:102858000002be0062ee2200532624000400be00df
:1028680080f907000002be005441880065418800d5
:102878000080fa00000006000000fa00c062a9000b
:10288800e064a900c462a800c50007004cfa07006c
:1028980004fd070099ff07000b010700d10007009e
:1028a80067000700c462a90005e1a8006011b8002c
:1028b8000000eb000a0007006011b80010002000bb
:1028c800070007006011b80020002000040007007e
:1028d8006011b8003000200001000700ffff37003a
:1028e8000800fa001007980022079800330798009c
:1028f8001e0290000500200036002000070020007e
:10290800860f5200878f5a0045003e000460010080
:10291800030037001200370021003700300037006d
:10292800b2592500530924002e009000be009000e3
:102938004cf907000002be0002002000e344240016
:102948000400be00bff707000002be000400be007e
:10295800d3f807000002be00040f780030003700eb
:10296800b2592500530924002e009000be009000a3
:102978003cf907000002be000401be0000002c0064
:1029880071432400aef707000002be000400be0039
:10299800c3f807000002be00040f780020003700cb
:1029a800b2592500530924002e009000be00900063
:1029b8002cf907000002be00020024000343240093
:1029c8000400be009ff707000002be000400be001e
:1029d800b3f807000002be00040f780010003700ab
:1029e800b2352d00c3eb23002e009000be009000ee
:1029f8001cf907000002be000401be000000200010
:102a0800012524008ef707000002be000400be0066
:102a1800a3f807000002be00040f780000000000c1
:102a28001e02900084024200c48d280004824200e5
:102a3800140278001e0a78000080fa0000000600e0
:102a48000000fa00c022a900c802a900c822a900f3
:102a5800c8e2a900e024a900e204a900e224a90030
:102a68001061a90011a1a9001021a90010c1a90095
:102a7800840880000440a0000450a1008408880055
:102a8800648f22006408880013a1a9001221a900fc
:102a980012c1a900940880000440a0000450a100bd
:102aa800940888009500a8008500a90044058000c6
:102ab8000400a0000410a0000420a0004405880021
:102ac800e400200074088800d42e20008445880083
:102ad800840c80000400a1000410a0000420a000c1
:102ae800840c8800d40c80000400a1000410a0000d
:102af8000420a000d40c8800240d80000400a1004c
:102b08000410a0000420a000240d8800840c80007c
:102b180004a0a10004b0a10004c0a100840c880096
:102b2800d40c800004a0a10004b0a10004c0a1003e
:102b3800d40c8800240d800004a0a10004b0a100da
:102b480004c0a100240d880091a1a9009ba1a9009f
:102b5800a5a1a900950c800004fe2f000482620044
:102b6800c400b300940c8800e50c800004fe2f001c
:102b780004826200c400b300e40c8800350d8000b4
:102b880004fe2f0004826200c400b300340d8800e4
:102b980011e1a80013e1a8000080fa000000060077
:102ba8000400fa000002eb00040f78000002eb00ba
:102bb800140798005ff607000000eb0065f60700b1
:102bc80004002800040f78007402200014079800fd
:102bd8009e0090001e007800fdf607000080fa00b5
:102be800000006000000fa0005e1a90005a1a900ff
:102bf80004c1a900240880000440a0000450a000db
:102c0800240888000421a9002405800004c0a1002c
:102c180004d0a10004e0a000240588008460a80076
:102c28009460a800440a2000140888000002eb0001
:102c3800040888000080fa00000006000000fa007e
:102c48008620a9000080fa00004006003600f8003f
:102c5800809fbe00829fbe00849fbe00869fbe00ec
:102c68000000fa008460a9009460a900241680007e
:102c78004222de00614262000404a2006142620056
:102c88000482fb00610262004222dd0026168000f9
:102c9800b5ff2f0085026300050272002416880024
:102ca80049fd07007efc07009460a8000080fa0038
:102cb8004f03be004f02be004f01be004f00be00d2
:102cc8003600f900004006000000fa00a4702d004c
:102cd80035c2230094458800a5458800d4cc2c0033
:102ce800c5d42300b4458800c5458800d4cc2c0041
:102cf800c5dc2300d4458800e545880034082c004d
:102d0800a5f22300f445880005468800d4cc2c00a1
:102d1800c5dc2300144688002546880034082c00aa
:102d2800a5f2230034468800454688006022b80092
:102d380054468800654688006022b80074468800ba
:102d4800854688006022b80094468800a546880019
:102d58006022b800b4468800c54688006022b800e2
:102d6800d4468800e54688006022b800f44688000a
:102d7800054788006022b800144788002547880066
:102d88006022b80034478800454788006022b800b0
:102d980054478800654788006022b8007447880057
:102da800854788006022b80094478800a5478800b6
:102db8006022b800b4478800c54788000080fa0040
:102dc800000006000000fa00889fbe0056468000fa
:102dd8006746800054418000654180000401be00c0
:102de8000600be0096f607000002be00b446880042
:102df800c54688007646800087468000944180005a
:102e0800a54180000401be000600be008cf6070044
:102e18000002be00144788002547880096468000b7
:102e2800a746800074418000854180000401be00ef
:102e38000600be0082f607000002be007447880044
:102e4800854788003440800045408000d44688008b
:102e5800e54688007440800085408000344788003b
:102e680045478800544080006540800094478800aa
:102e7800a5478800b6468000c7468000b445800054
:102e8800c54580000401be000600be00f5f7070036
:102e98000002be000404be00d6468000e74680005b
:102ea80094458000a54580000401be000600be00d0
:102eb800ecf707000002be000401be000800be00d7
:102ec8005ff607000002be00f44688000547880048
:102ed8001647800027478000f4458000054680009b
:102ee8000401be000600be00def707000002be00b7
:102ef8000404be003647800047478000d445800060
:102f0800e54580000401be000600be00d5f70700b5
:102f18000002be000401be000800be0048f607001b
:102f28000002be0054478800654788007647800045
:102f38008747800034468000454680000401be0073
:102f48000600be00c7f707000002be000404be006a
:102f580096478000a74780001446800025468000d9
:102f68000401be000600be00bef707000002be0056
:102f78000401be000800be0031f607000002be00d2
:102f8800b4478800c5478800f4468000054780009c
:102f980018c0b30002002000030024000400be0093
:102fa8003df7070000027800e00f520001003c00e6
:102fb8000044eb00e04f54000500320004002000fc
:102fc80005002400f44688000547880011003700f2
:102fd800f44680000547800018c0b30002002000b6
:102fe80003002c000400be0029f707000002780047
:102ff800e00f5200010035000044eb00e04f5400a0
:10300800040032000400200005002c00f44688006b
:10301800054788004f04be000080fa000000060043
:103028000000fa005647800067478000f446800099
:10303800054780000401be000600be0001f6070037
:103048000002be000401be000000eb0024fe0700e1
:10305800b6478000c7478000f446800005478000d7
:103068000401be000600be00f6f507000002be001f
:103078000401be001000200019fe0700f64680007b
:103088000747800054478000654780000401be0060
:103098000600be00eaf507000002be000401be00fb
:1030a800200020000efe0700f6468000074780003b
:1030b800b4478000c54780000401be000600be007a
:1030c800dff507000002be000401be00300020004a
:1030d80003fe07000080fa0000000600849fbe007f
:1030e8000000fa008500a900744580000402e80089
:1030f800744588007545800064458000848f5200bf
:1031080002003900c422a90001003700c422a80027
:103118007545800084458000848f52000200390084
:103128000002eb00744588000080fa004f02be00e0
:04313800004006004d
:020000040000fa
:10313c0000080000fa00000000000000fa0800007f
:10314c00260000000200000020202000202020008b
:10315c002020200020202000acfff400fffdff0009
:10316c000000d000410000004843000000e0400097
:10317c000000200042000000c841000020090000af
:0c318c0002000000000000000000000035
:020000040000fa
:10319800f03fb1000180b10006003500ee030900e0
:1031a80000000000403fb1000180b100fbff3d007e
:1031b8001000b000203fb000020035000080090078
:0831c8000000000000000600f9
:020000040000fa
:0200000401f009
:04000c00f8ff0000f9
:020000040000fa
:0200000401f009
:04001000fbff0000f2
:020000040000fa
:0200000401f009
:040014005fff00008a
:020000040000fa
:0200000401f009
:04001c00fdff0000e4
:00000001FF
